{
  "_format": "hh-sol-artifact-1",
  "contractName": "DegenToken",
  "sourceName": "contracts/DegenToken.sol",
  "abi": [
    {
      "inputs": [],
      "stateMutability": "nonpayable",
      "type": "constructor"
    },
    {
      "anonymous": false,
      "inputs": [
        {
          "indexed": true,
          "internalType": "address",
          "name": "owner",
          "type": "address"
        },
        {
          "indexed": true,
          "internalType": "address",
          "name": "spender",
          "type": "address"
        },
        {
          "indexed": false,
          "internalType": "uint256",
          "name": "value",
          "type": "uint256"
        }
      ],
      "name": "Approval",
      "type": "event"
    },
    {
      "anonymous": false,
      "inputs": [
        {
          "indexed": true,
          "internalType": "address",
          "name": "previousOwner",
          "type": "address"
        },
        {
          "indexed": true,
          "internalType": "address",
          "name": "newOwner",
          "type": "address"
        }
      ],
      "name": "OwnershipTransferred",
      "type": "event"
    },
    {
      "anonymous": false,
      "inputs": [
        {
          "indexed": true,
          "internalType": "address",
          "name": "from",
          "type": "address"
        },
        {
          "indexed": true,
          "internalType": "address",
          "name": "to",
          "type": "address"
        },
        {
          "indexed": false,
          "internalType": "uint256",
          "name": "value",
          "type": "uint256"
        }
      ],
      "name": "Transfer",
      "type": "event"
    },
    {
      "inputs": [
        {
          "internalType": "address",
          "name": "owner",
          "type": "address"
        },
        {
          "internalType": "address",
          "name": "spender",
          "type": "address"
        }
      ],
      "name": "allowance",
      "outputs": [
        {
          "internalType": "uint256",
          "name": "",
          "type": "uint256"
        }
      ],
      "stateMutability": "view",
      "type": "function"
    },
    {
      "inputs": [
        {
          "internalType": "address",
          "name": "spender",
          "type": "address"
        },
        {
          "internalType": "uint256",
          "name": "amount",
          "type": "uint256"
        }
      ],
      "name": "approve",
      "outputs": [
        {
          "internalType": "bool",
          "name": "",
          "type": "bool"
        }
      ],
      "stateMutability": "nonpayable",
      "type": "function"
    },
    {
      "inputs": [
        {
          "internalType": "address",
          "name": "account",
          "type": "address"
        }
      ],
      "name": "balanceOf",
      "outputs": [
        {
          "internalType": "uint256",
          "name": "",
          "type": "uint256"
        }
      ],
      "stateMutability": "view",
      "type": "function"
    },
    {
      "inputs": [],
      "name": "decimals",
      "outputs": [
        {
          "internalType": "uint8",
          "name": "",
          "type": "uint8"
        }
      ],
      "stateMutability": "view",
      "type": "function"
    },
    {
      "inputs": [
        {
          "internalType": "address",
          "name": "spender",
          "type": "address"
        },
        {
          "internalType": "uint256",
          "name": "subtractedValue",
          "type": "uint256"
        }
      ],
      "name": "decreaseAllowance",
      "outputs": [
        {
          "internalType": "bool",
          "name": "",
          "type": "bool"
        }
      ],
      "stateMutability": "nonpayable",
      "type": "function"
    },
    {
      "inputs": [],
      "name": "giftItems",
      "outputs": [],
      "stateMutability": "view",
      "type": "function"
    },
    {
      "inputs": [
        {
          "internalType": "address",
          "name": "spender",
          "type": "address"
        },
        {
          "internalType": "uint256",
          "name": "addedValue",
          "type": "uint256"
        }
      ],
      "name": "increaseAllowance",
      "outputs": [
        {
          "internalType": "bool",
          "name": "",
          "type": "bool"
        }
      ],
      "stateMutability": "nonpayable",
      "type": "function"
    },
    {
      "inputs": [
        {
          "internalType": "address",
          "name": "to",
          "type": "address"
        },
        {
          "internalType": "uint256",
          "name": "amount",
          "type": "uint256"
        }
      ],
      "name": "mint",
      "outputs": [],
      "stateMutability": "nonpayable",
      "type": "function"
    },
    {
      "inputs": [],
      "name": "name",
      "outputs": [
        {
          "internalType": "string",
          "name": "",
          "type": "string"
        }
      ],
      "stateMutability": "view",
      "type": "function"
    },
    {
      "inputs": [],
      "name": "owner",
      "outputs": [
        {
          "internalType": "address",
          "name": "",
          "type": "address"
        }
      ],
      "stateMutability": "view",
      "type": "function"
    },
    {
      "inputs": [
        {
          "internalType": "uint256",
          "name": "itemNo",
          "type": "uint256"
        }
      ],
      "name": "redeemFunction",
      "outputs": [],
      "stateMutability": "nonpayable",
      "type": "function"
    },
    {
      "inputs": [],
      "name": "renounceOwnership",
      "outputs": [],
      "stateMutability": "nonpayable",
      "type": "function"
    },
    {
      "inputs": [],
      "name": "symbol",
      "outputs": [
        {
          "internalType": "string",
          "name": "",
          "type": "string"
        }
      ],
      "stateMutability": "view",
      "type": "function"
    },
    {
      "inputs": [],
      "name": "totalSupply",
      "outputs": [
        {
          "internalType": "uint256",
          "name": "",
          "type": "uint256"
        }
      ],
      "stateMutability": "view",
      "type": "function"
    },
    {
      "inputs": [
        {
          "internalType": "address",
          "name": "to",
          "type": "address"
        },
        {
          "internalType": "uint256",
          "name": "amount",
          "type": "uint256"
        }
      ],
      "name": "transfer",
      "outputs": [
        {
          "internalType": "bool",
          "name": "",
          "type": "bool"
        }
      ],
      "stateMutability": "nonpayable",
      "type": "function"
    },
    {
      "inputs": [
        {
          "internalType": "address",
          "name": "from",
          "type": "address"
        },
        {
          "internalType": "address",
          "name": "to",
          "type": "address"
        },
        {
          "internalType": "uint256",
          "name": "amount",
          "type": "uint256"
        }
      ],
      "name": "transferFrom",
      "outputs": [
        {
          "internalType": "bool",
          "name": "",
          "type": "bool"
        }
      ],
      "stateMutability": "nonpayable",
      "type": "function"
    },
    {
      "inputs": [
        {
          "internalType": "address",
          "name": "newOwner",
          "type": "address"
        }
      ],
      "name": "transferOwnership",
      "outputs": [],
      "stateMutability": "nonpayable",
      "type": "function"
    }
  ],
  "bytecode": "0x60806040523480156200001157600080fd5b506040518060400160405280600581526020017f446567656e0000000000000000000000000000000000000000000000000000008152506040518060400160405280600381526020017f44474e000000000000000000000000000000000000000000000000000000000081525081600390816200008f919062000412565b508060049081620000a1919062000412565b505050620000c4620000b8620000ca60201b60201c565b620000d260201b60201c565b620004f9565b600033905090565b6000600560009054906101000a900473ffffffffffffffffffffffffffffffffffffffff16905081600560006101000a81548173ffffffffffffffffffffffffffffffffffffffff021916908373ffffffffffffffffffffffffffffffffffffffff1602179055508173ffffffffffffffffffffffffffffffffffffffff168173ffffffffffffffffffffffffffffffffffffffff167f8be0079c531659141344cd1fd0a4f28419497f9722a3daafe3b4186f6b6457e060405160405180910390a35050565b600081519050919050565b7f4e487b7100000000000000000000000000000000000000000000000000000000600052604160045260246000fd5b7f4e487b7100000000000000000000000000000000000000000000000000000000600052602260045260246000fd5b600060028204905060018216806200021a57607f821691505b60208210810362000230576200022f620001d2565b5b50919050565b60008190508160005260206000209050919050565b60006020601f8301049050919050565b600082821b905092915050565b6000600883026200029a7fffffffffffffffffffffffffffffffffffffffffffffffffffffffffffffffff826200025b565b620002a686836200025b565b95508019841693508086168417925050509392505050565b6000819050919050565b6000819050919050565b6000620002f3620002ed620002e784620002be565b620002c8565b620002be565b9050919050565b6000819050919050565b6200030f83620002d2565b620003276200031e82620002fa565b84845462000268565b825550505050565b600090565b6200033e6200032f565b6200034b81848462000304565b505050565b5b8181101562000373576200036760008262000334565b60018101905062000351565b5050565b601f821115620003c2576200038c8162000236565b62000397846200024b565b81016020851015620003a7578190505b620003bf620003b6856200024b565b83018262000350565b50505b505050565b600082821c905092915050565b6000620003e760001984600802620003c7565b1980831691505092915050565b6000620004028383620003d4565b9150826002028217905092915050565b6200041d8262000198565b67ffffffffffffffff811115620004395762000438620001a3565b5b62000445825462000201565b6200045282828562000377565b600060209050601f8311600181146200048a576000841562000475578287015190505b620004818582620003f4565b865550620004f1565b601f1984166200049a8662000236565b60005b82811015620004c4578489015182556001820191506020850194506020810190506200049d565b86831015620004e45784890151620004e0601f891682620003d4565b8355505b6001600288020188555050505b505050505050565b611d4980620005096000396000f3fe608060405234801561001057600080fd5b506004361061010b5760003560e01c806370a08231116100a257806395d89b411161007157806395d89b4114610294578063a457c2d7146102b2578063a9059cbb146102e2578063dd62ed3e14610312578063f2fde38b146103425761010b565b806370a0823114610232578063715018a614610262578063847bc9701461026c5780638da5cb5b146102765761010b565b806323b872dd116100de57806323b872dd14610198578063313ce567146101c857806339509351146101e657806340c10f19146102165761010b565b80630182b4431461011057806306fdde031461012c578063095ea7b31461014a57806318160ddd1461017a575b600080fd5b61012a600480360381019061012591906113a4565b61035e565b005b6101346105c1565b6040516101419190611461565b60405180910390f35b610164600480360381019061015f91906114e1565b610653565b604051610171919061153c565b60405180910390f35b610182610676565b60405161018f9190611566565b60405180910390f35b6101b260048036038101906101ad9190611581565b610680565b6040516101bf919061153c565b60405180910390f35b6101d06106af565b6040516101dd91906115f0565b60405180910390f35b61020060048036038101906101fb91906114e1565b6106b8565b60405161020d919061153c565b60405180910390f35b610230600480360381019061022b91906114e1565b6106ef565b005b61024c6004803603810190610247919061160b565b61073c565b6040516102599190611566565b60405180910390f35b61026a610784565b005b610274610798565b005b61027e6108d0565b60405161028b9190611647565b60405180910390f35b61029c6108fa565b6040516102a99190611461565b60405180910390f35b6102cc60048036038101906102c791906114e1565b61098c565b6040516102d9919061153c565b60405180910390f35b6102fc60048036038101906102f791906114e1565b610a03565b604051610309919061153c565b60405180910390f35b61032c60048036038101906103279190611662565b610a26565b6040516103399190611566565b60405180910390f35b61035c6004803603810190610357919061160b565b610aad565b005b600181036103c95760646103713361073c565b116103b1576040517f08c379a00000000000000000000000000000000000000000000000000000000081526004016103a8906116ee565b60405180910390fd5b6103c36103bc6108d0565b6064610a03565b506105be565b600281036104345760c86103dc3361073c565b1161041c576040517f08c379a0000000000000000000000000000000000000000000000000000000008152600401610413906116ee565b60405180910390fd5b61042e6104276108d0565b60c8610a03565b506105bd565b600381036104a15761012c6104483361073c565b11610488576040517f08c379a000000000000000000000000000000000000000000000000000000000815260040161047f906116ee565b60405180910390fd5b61049b6104936108d0565b61012c610a03565b506105bc565b6004810361050e576101906104b53361073c565b116104f5576040517f08c379a00000000000000000000000000000000000000000000000000000000081526004016104ec906116ee565b60405180910390fd5b6105086105006108d0565b610190610a03565b506105bb565b6005810361057b576101f46105223361073c565b11610562576040517f08c379a0000000000000000000000000000000000000000000000000000000008152600401610559906116ee565b60405180910390fd5b61057561056d6108d0565b6101f4610a03565b506105ba565b6105b96040518060400160405280601881526020017f63686f73652074686520636f7272656374206f7074696f6e0000000000000000815250610b30565b5b5b5b5b5b50565b6060600380546105d09061173d565b80601f01602080910402602001604051908101604052809291908181526020018280546105fc9061173d565b80156106495780601f1061061e57610100808354040283529160200191610649565b820191906000526020600020905b81548152906001019060200180831161062c57829003601f168201915b5050505050905090565b60008061065e610bc9565b905061066b818585610bd1565b600191505092915050565b6000600254905090565b60008061068b610bc9565b9050610698858285610d9a565b6106a3858585610e26565b60019150509392505050565b60006012905090565b6000806106c3610bc9565b90506106e48185856106d58589610a26565b6106df919061179d565b610bd1565b600191505092915050565b6106f76108d0565b73ffffffffffffffffffffffffffffffffffffffff163373ffffffffffffffffffffffffffffffffffffffff161461072e57600080fd5b610738828261109c565b5050565b60008060008373ffffffffffffffffffffffffffffffffffffffff1673ffffffffffffffffffffffffffffffffffffffff168152602001908152602001600020549050919050565b61078c6111f2565b6107966000611270565b565b6107d66040518060400160405280601581526020017f676966742d3120666f722031303020746f6b656e200000000000000000000000815250610b30565b6108146040518060400160405280601581526020017f676966742d3220666f722032303020746f6b656e200000000000000000000000815250610b30565b6108526040518060400160405280601581526020017f676966742d3320666f722033303020746f6b656e200000000000000000000000815250610b30565b6108906040518060400160405280601581526020017f676966742d3420666f722034303020746f6b656e200000000000000000000000815250610b30565b6108ce6040518060400160405280601481526020017f676966742d3520666f722035303020746f6b656e000000000000000000000000815250610b30565b565b6000600560009054906101000a900473ffffffffffffffffffffffffffffffffffffffff16905090565b6060600480546109099061173d565b80601f01602080910402602001604051908101604052809291908181526020018280546109359061173d565b80156109825780601f1061095757610100808354040283529160200191610982565b820191906000526020600020905b81548152906001019060200180831161096557829003601f168201915b5050505050905090565b600080610997610bc9565b905060006109a58286610a26565b9050838110156109ea576040517f08c379a00000000000000000000000000000000000000000000000000000000081526004016109e190611843565b60405180910390fd5b6109f78286868403610bd1565b60019250505092915050565b600080610a0e610bc9565b9050610a1b818585610e26565b600191505092915050565b6000600160008473ffffffffffffffffffffffffffffffffffffffff1673ffffffffffffffffffffffffffffffffffffffff16815260200190815260200160002060008373ffffffffffffffffffffffffffffffffffffffff1673ffffffffffffffffffffffffffffffffffffffff16815260200190815260200160002054905092915050565b610ab56111f2565b600073ffffffffffffffffffffffffffffffffffffffff168173ffffffffffffffffffffffffffffffffffffffff1603610b24576040517f08c379a0000000000000000000000000000000000000000000000000000000008152600401610b1b906118d5565b60405180910390fd5b610b2d81611270565b50565b610bc681604051602401610b449190611461565b6040516020818303038152906040527f41304fac000000000000000000000000000000000000000000000000000000007bffffffffffffffffffffffffffffffffffffffffffffffffffffffff19166020820180517bffffffffffffffffffffffffffffffffffffffffffffffffffffffff8381831617835250505050611336565b50565b600033905090565b600073ffffffffffffffffffffffffffffffffffffffff168373ffffffffffffffffffffffffffffffffffffffff1603610c40576040517f08c379a0000000000000000000000000000000000000000000000000000000008152600401610c3790611967565b60405180910390fd5b600073ffffffffffffffffffffffffffffffffffffffff168273ffffffffffffffffffffffffffffffffffffffff1603610caf576040517f08c379a0000000000000000000000000000000000000000000000000000000008152600401610ca6906119f9565b60405180910390fd5b80600160008573ffffffffffffffffffffffffffffffffffffffff1673ffffffffffffffffffffffffffffffffffffffff16815260200190815260200160002060008473ffffffffffffffffffffffffffffffffffffffff1673ffffffffffffffffffffffffffffffffffffffff168152602001908152602001600020819055508173ffffffffffffffffffffffffffffffffffffffff168373ffffffffffffffffffffffffffffffffffffffff167f8c5be1e5ebec7d5bd14f71427d1e84f3dd0314c0f7b2291e5b200ac8c7c3b92583604051610d8d9190611566565b60405180910390a3505050565b6000610da68484610a26565b90507fffffffffffffffffffffffffffffffffffffffffffffffffffffffffffffffff8114610e205781811015610e12576040517f08c379a0000000000000000000000000000000000000000000000000000000008152600401610e0990611a65565b60405180910390fd5b610e1f8484848403610bd1565b5b50505050565b600073ffffffffffffffffffffffffffffffffffffffff168373ffffffffffffffffffffffffffffffffffffffff1603610e95576040517f08c379a0000000000000000000000000000000000000000000000000000000008152600401610e8c90611af7565b60405180910390fd5b600073ffffffffffffffffffffffffffffffffffffffff168273ffffffffffffffffffffffffffffffffffffffff1603610f04576040517f08c379a0000000000000000000000000000000000000000000000000000000008152600401610efb90611b89565b60405180910390fd5b610f0f83838361135f565b60008060008573ffffffffffffffffffffffffffffffffffffffff1673ffffffffffffffffffffffffffffffffffffffff16815260200190815260200160002054905081811015610f95576040517f08c379a0000000000000000000000000000000000000000000000000000000008152600401610f8c90611c1b565b60405180910390fd5b8181036000808673ffffffffffffffffffffffffffffffffffffffff1673ffffffffffffffffffffffffffffffffffffffff16815260200190815260200160002081905550816000808573ffffffffffffffffffffffffffffffffffffffff1673ffffffffffffffffffffffffffffffffffffffff168152602001908152602001600020600082825401925050819055508273ffffffffffffffffffffffffffffffffffffffff168473ffffffffffffffffffffffffffffffffffffffff167fddf252ad1be2c89b69c2b068fc378daa952ba7f163c4a11628f55a4df523b3ef846040516110839190611566565b60405180910390a3611096848484611364565b50505050565b600073ffffffffffffffffffffffffffffffffffffffff168273ffffffffffffffffffffffffffffffffffffffff160361110b576040517f08c379a000000000000000000000000000000000000000000000000000000000815260040161110290611c87565b60405180910390fd5b6111176000838361135f565b8060026000828254611129919061179d565b92505081905550806000808473ffffffffffffffffffffffffffffffffffffffff1673ffffffffffffffffffffffffffffffffffffffff168152602001908152602001600020600082825401925050819055508173ffffffffffffffffffffffffffffffffffffffff16600073ffffffffffffffffffffffffffffffffffffffff167fddf252ad1be2c89b69c2b068fc378daa952ba7f163c4a11628f55a4df523b3ef836040516111da9190611566565b60405180910390a36111ee60008383611364565b5050565b6111fa610bc9565b73ffffffffffffffffffffffffffffffffffffffff166112186108d0565b73ffffffffffffffffffffffffffffffffffffffff161461126e576040517f08c379a000000000000000000000000000000000000000000000000000000000815260040161126590611cf3565b60405180910390fd5b565b6000600560009054906101000a900473ffffffffffffffffffffffffffffffffffffffff16905081600560006101000a81548173ffffffffffffffffffffffffffffffffffffffff021916908373ffffffffffffffffffffffffffffffffffffffff1602179055508173ffffffffffffffffffffffffffffffffffffffff168173ffffffffffffffffffffffffffffffffffffffff167f8be0079c531659141344cd1fd0a4f28419497f9722a3daafe3b4186f6b6457e060405160405180910390a35050565b60008151905060006a636f6e736f6c652e6c6f679050602083016000808483855afa5050505050565b505050565b505050565b600080fd5b6000819050919050565b6113818161136e565b811461138c57600080fd5b50565b60008135905061139e81611378565b92915050565b6000602082840312156113ba576113b9611369565b5b60006113c88482850161138f565b91505092915050565b600081519050919050565b600082825260208201905092915050565b60005b8381101561140b5780820151818401526020810190506113f0565b60008484015250505050565b6000601f19601f8301169050919050565b6000611433826113d1565b61143d81856113dc565b935061144d8185602086016113ed565b61145681611417565b840191505092915050565b6000602082019050818103600083015261147b8184611428565b905092915050565b600073ffffffffffffffffffffffffffffffffffffffff82169050919050565b60006114ae82611483565b9050919050565b6114be816114a3565b81146114c957600080fd5b50565b6000813590506114db816114b5565b92915050565b600080604083850312156114f8576114f7611369565b5b6000611506858286016114cc565b92505060206115178582860161138f565b9150509250929050565b60008115159050919050565b61153681611521565b82525050565b6000602082019050611551600083018461152d565b92915050565b6115608161136e565b82525050565b600060208201905061157b6000830184611557565b92915050565b60008060006060848603121561159a57611599611369565b5b60006115a8868287016114cc565b93505060206115b9868287016114cc565b92505060406115ca8682870161138f565b9150509250925092565b600060ff82169050919050565b6115ea816115d4565b82525050565b600060208201905061160560008301846115e1565b92915050565b60006020828403121561162157611620611369565b5b600061162f848285016114cc565b91505092915050565b611641816114a3565b82525050565b600060208201905061165c6000830184611638565b92915050565b6000806040838503121561167957611678611369565b5b6000611687858286016114cc565b9250506020611698858286016114cc565b9150509250929050565b7f6e6f7420656e6f7567682062616c616e63650000000000000000000000000000600082015250565b60006116d86012836113dc565b91506116e3826116a2565b602082019050919050565b60006020820190508181036000830152611707816116cb565b9050919050565b7f4e487b7100000000000000000000000000000000000000000000000000000000600052602260045260246000fd5b6000600282049050600182168061175557607f821691505b6020821081036117685761176761170e565b5b50919050565b7f4e487b7100000000000000000000000000000000000000000000000000000000600052601160045260246000fd5b60006117a88261136e565b91506117b38361136e565b92508282019050808211156117cb576117ca61176e565b5b92915050565b7f45524332303a2064656372656173656420616c6c6f77616e63652062656c6f7760008201527f207a65726f000000000000000000000000000000000000000000000000000000602082015250565b600061182d6025836113dc565b9150611838826117d1565b604082019050919050565b6000602082019050818103600083015261185c81611820565b9050919050565b7f4f776e61626c653a206e6577206f776e657220697320746865207a65726f206160008201527f6464726573730000000000000000000000000000000000000000000000000000602082015250565b60006118bf6026836113dc565b91506118ca82611863565b604082019050919050565b600060208201905081810360008301526118ee816118b2565b9050919050565b7f45524332303a20617070726f76652066726f6d20746865207a65726f2061646460008201527f7265737300000000000000000000000000000000000000000000000000000000602082015250565b60006119516024836113dc565b915061195c826118f5565b604082019050919050565b6000602082019050818103600083015261198081611944565b9050919050565b7f45524332303a20617070726f766520746f20746865207a65726f20616464726560008201527f7373000000000000000000000000000000000000000000000000000000000000602082015250565b60006119e36022836113dc565b91506119ee82611987565b604082019050919050565b60006020820190508181036000830152611a12816119d6565b9050919050565b7f45524332303a20696e73756666696369656e7420616c6c6f77616e6365000000600082015250565b6000611a4f601d836113dc565b9150611a5a82611a19565b602082019050919050565b60006020820190508181036000830152611a7e81611a42565b9050919050565b7f45524332303a207472616e736665722066726f6d20746865207a65726f20616460008201527f6472657373000000000000000000000000000000000000000000000000000000602082015250565b6000611ae16025836113dc565b9150611aec82611a85565b604082019050919050565b60006020820190508181036000830152611b1081611ad4565b9050919050565b7f45524332303a207472616e7366657220746f20746865207a65726f206164647260008201527f6573730000000000000000000000000000000000000000000000000000000000602082015250565b6000611b736023836113dc565b9150611b7e82611b17565b604082019050919050565b60006020820190508181036000830152611ba281611b66565b9050919050565b7f45524332303a207472616e7366657220616d6f756e742065786365656473206260008201527f616c616e63650000000000000000000000000000000000000000000000000000602082015250565b6000611c056026836113dc565b9150611c1082611ba9565b604082019050919050565b60006020820190508181036000830152611c3481611bf8565b9050919050565b7f45524332303a206d696e7420746f20746865207a65726f206164647265737300600082015250565b6000611c71601f836113dc565b9150611c7c82611c3b565b602082019050919050565b60006020820190508181036000830152611ca081611c64565b9050919050565b7f4f776e61626c653a2063616c6c6572206973206e6f7420746865206f776e6572600082015250565b6000611cdd6020836113dc565b9150611ce882611ca7565b602082019050919050565b60006020820190508181036000830152611d0c81611cd0565b905091905056fea2646970667358221220027d4abfe9a6ead7ceffd71f6e54b971d28823cc0ad9969abee9652036dc281f64736f6c63430008120033",
  "linkReferences": {},
  "deployedLinkReferences": {}
}